{
  "contractName": "KlerosPOC",
  "abi": [
    {
      "constant": true,
      "inputs": [],
      "name": "lastPeriodChange",
      "outputs": [
        {
          "name": "",
          "type": "uint256"
        }
      ],
      "payable": false,
      "stateMutability": "view",
      "type": "function"
    },
    {
      "constant": true,
      "inputs": [
        {
          "name": "_disputeID",
          "type": "uint256"
        }
      ],
      "name": "disputeStatus",
      "outputs": [
        {
          "name": "status",
          "type": "uint8"
        }
      ],
      "payable": false,
      "stateMutability": "view",
      "type": "function"
    },
    {
      "constant": true,
      "inputs": [
        {
          "name": "_disputeID",
          "type": "uint256"
        }
      ],
      "name": "currentRuling",
      "outputs": [
        {
          "name": "ruling",
          "type": "uint256"
        }
      ],
      "payable": false,
      "stateMutability": "view",
      "type": "function"
    },
    {
      "constant": true,
      "inputs": [],
      "name": "rnBlock",
      "outputs": [
        {
          "name": "",
          "type": "uint256"
        }
      ],
      "payable": false,
      "stateMutability": "view",
      "type": "function"
    },
    {
      "constant": false,
      "inputs": [
        {
          "name": "_value",
          "type": "uint256"
        }
      ],
      "name": "activateTokens",
      "outputs": [],
      "payable": false,
      "stateMutability": "nonpayable",
      "type": "function"
    },
    {
      "constant": true,
      "inputs": [
        {
          "name": "_disputeID",
          "type": "uint256"
        }
      ],
      "name": "amountJurors",
      "outputs": [
        {
          "name": "nbJurors",
          "type": "uint256"
        }
      ],
      "payable": false,
      "stateMutability": "view",
      "type": "function"
    },
    {
      "constant": false,
      "inputs": [
        {
          "name": "_value",
          "type": "uint256"
        }
      ],
      "name": "withdraw",
      "outputs": [],
      "payable": false,
      "stateMutability": "nonpayable",
      "type": "function"
    },
    {
      "constant": true,
      "inputs": [],
      "name": "segmentSize",
      "outputs": [
        {
          "name": "",
          "type": "uint256"
        }
      ],
      "payable": false,
      "stateMutability": "view",
      "type": "function"
    },
    {
      "constant": false,
      "inputs": [
        {
          "name": "_disputeID",
          "type": "uint256"
        },
        {
          "name": "_ruling",
          "type": "uint256"
        },
        {
          "name": "_draws",
          "type": "uint256[]"
        }
      ],
      "name": "voteRuling",
      "outputs": [],
      "payable": false,
      "stateMutability": "nonpayable",
      "type": "function"
    },
    {
      "constant": false,
      "inputs": [
        {
          "name": "_from",
          "type": "address"
        },
        {
          "name": "_value",
          "type": "uint256"
        }
      ],
      "name": "deposit",
      "outputs": [],
      "payable": false,
      "stateMutability": "nonpayable",
      "type": "function"
    },
    {
      "constant": false,
      "inputs": [
        {
          "name": "_disputeID",
          "type": "uint256"
        },
        {
          "name": "_extraData",
          "type": "bytes"
        }
      ],
      "name": "appeal",
      "outputs": [],
      "payable": true,
      "stateMutability": "payable",
      "type": "function"
    },
    {
      "constant": true,
      "inputs": [
        {
          "name": "",
          "type": "uint256"
        }
      ],
      "name": "disputes",
      "outputs": [
        {
          "name": "arbitrated",
          "type": "address"
        },
        {
          "name": "session",
          "type": "uint256"
        },
        {
          "name": "appeals",
          "type": "uint256"
        },
        {
          "name": "choices",
          "type": "uint256"
        },
        {
          "name": "initialNumberJurors",
          "type": "uint16"
        },
        {
          "name": "arbitrationFeePerJuror",
          "type": "uint256"
        },
        {
          "name": "state",
          "type": "uint8"
        }
      ],
      "payable": false,
      "stateMutability": "view",
      "type": "function"
    },
    {
      "constant": true,
      "inputs": [],
      "name": "session",
      "outputs": [
        {
          "name": "",
          "type": "uint256"
        }
      ],
      "payable": false,
      "stateMutability": "view",
      "type": "function"
    },
    {
      "constant": true,
      "inputs": [
        {
          "name": "_disputeID",
          "type": "uint256"
        },
        {
          "name": "_appeals",
          "type": "uint256"
        },
        {
          "name": "_choice",
          "type": "uint256"
        }
      ],
      "name": "getVoteCount",
      "outputs": [
        {
          "name": "voteCount",
          "type": "uint256"
        }
      ],
      "payable": false,
      "stateMutability": "view",
      "type": "function"
    },
    {
      "constant": true,
      "inputs": [
        {
          "name": "_disputeID",
          "type": "uint256"
        },
        {
          "name": "_juror",
          "type": "address"
        },
        {
          "name": "_draw",
          "type": "uint256"
        }
      ],
      "name": "isDrawn",
      "outputs": [
        {
          "name": "drawn",
          "type": "bool"
        }
      ],
      "payable": false,
      "stateMutability": "view",
      "type": "function"
    },
    {
      "constant": true,
      "inputs": [
        {
          "name": "_disputeID",
          "type": "uint256"
        },
        {
          "name": "_appeals",
          "type": "uint256"
        },
        {
          "name": "_voteID",
          "type": "uint256"
        }
      ],
      "name": "getVoteAccount",
      "outputs": [
        {
          "name": "account",
          "type": "address"
        }
      ],
      "payable": false,
      "stateMutability": "view",
      "type": "function"
    },
    {
      "constant": false,
      "inputs": [
        {
          "name": "disputeID",
          "type": "uint256"
        }
      ],
      "name": "executeRuling",
      "outputs": [],
      "payable": false,
      "stateMutability": "nonpayable",
      "type": "function"
    },
    {
      "constant": true,
      "inputs": [],
      "name": "arbitrationFeePerJuror",
      "outputs": [
        {
          "name": "",
          "type": "uint256"
        }
      ],
      "payable": false,
      "stateMutability": "view",
      "type": "function"
    },
    {
      "constant": false,
      "inputs": [],
      "name": "buyPinakion",
      "outputs": [],
      "payable": true,
      "stateMutability": "payable",
      "type": "function"
    },
    {
      "constant": true,
      "inputs": [],
      "name": "defaultNumberJuror",
      "outputs": [
        {
          "name": "",
          "type": "uint16"
        }
      ],
      "payable": false,
      "stateMutability": "view",
      "type": "function"
    },
    {
      "constant": false,
      "inputs": [],
      "name": "passPeriod",
      "outputs": [],
      "payable": false,
      "stateMutability": "nonpayable",
      "type": "function"
    },
    {
      "constant": true,
      "inputs": [
        {
          "name": "_disputeID",
          "type": "uint256"
        },
        {
          "name": "_appeals",
          "type": "uint256"
        },
        {
          "name": "_voteID",
          "type": "uint256"
        }
      ],
      "name": "getVoteRuling",
      "outputs": [
        {
          "name": "ruling",
          "type": "uint256"
        }
      ],
      "payable": false,
      "stateMutability": "view",
      "type": "function"
    },
    {
      "constant": true,
      "inputs": [
        {
          "name": "_disputeID",
          "type": "uint256"
        },
        {
          "name": "_juror",
          "type": "address"
        }
      ],
      "name": "getLastSessionVote",
      "outputs": [
        {
          "name": "lastSessionVote",
          "type": "uint256"
        }
      ],
      "payable": false,
      "stateMutability": "view",
      "type": "function"
    },
    {
      "constant": true,
      "inputs": [
        {
          "name": "",
          "type": "uint256"
        }
      ],
      "name": "timePerPeriod",
      "outputs": [
        {
          "name": "",
          "type": "uint256"
        }
      ],
      "payable": false,
      "stateMutability": "view",
      "type": "function"
    },
    {
      "constant": false,
      "inputs": [
        {
          "name": "_choices",
          "type": "uint256"
        },
        {
          "name": "_extraData",
          "type": "bytes"
        }
      ],
      "name": "createDispute",
      "outputs": [
        {
          "name": "disputeID",
          "type": "uint256"
        }
      ],
      "payable": true,
      "stateMutability": "payable",
      "type": "function"
    },
    {
      "constant": false,
      "inputs": [
        {
          "name": "_disputeID",
          "type": "uint256"
        }
      ],
      "name": "oneShotTokenRepartition",
      "outputs": [],
      "payable": false,
      "stateMutability": "nonpayable",
      "type": "function"
    },
    {
      "constant": true,
      "inputs": [
        {
          "name": "_disputeID",
          "type": "uint256"
        },
        {
          "name": "_appeals",
          "type": "uint256"
        }
      ],
      "name": "getWinningChoice",
      "outputs": [
        {
          "name": "winningChoice",
          "type": "uint256"
        }
      ],
      "payable": false,
      "stateMutability": "view",
      "type": "function"
    },
    {
      "constant": true,
      "inputs": [],
      "name": "randomNumber",
      "outputs": [
        {
          "name": "",
          "type": "uint256"
        }
      ],
      "payable": false,
      "stateMutability": "view",
      "type": "function"
    },
    {
      "constant": true,
      "inputs": [],
      "name": "rng",
      "outputs": [
        {
          "name": "",
          "type": "address"
        }
      ],
      "payable": false,
      "stateMutability": "view",
      "type": "function"
    },
    {
      "constant": true,
      "inputs": [],
      "name": "alpha",
      "outputs": [
        {
          "name": "",
          "type": "uint256"
        }
      ],
      "payable": false,
      "stateMutability": "view",
      "type": "function"
    },
    {
      "constant": true,
      "inputs": [
        {
          "name": "",
          "type": "address"
        }
      ],
      "name": "jurors",
      "outputs": [
        {
          "name": "balance",
          "type": "uint256"
        },
        {
          "name": "atStake",
          "type": "uint256"
        },
        {
          "name": "lastSession",
          "type": "uint256"
        },
        {
          "name": "segmentStart",
          "type": "uint256"
        },
        {
          "name": "segmentEnd",
          "type": "uint256"
        }
      ],
      "payable": false,
      "stateMutability": "view",
      "type": "function"
    },
    {
      "constant": true,
      "inputs": [
        {
          "name": "_disputeID",
          "type": "uint256"
        },
        {
          "name": "_appeals",
          "type": "uint256"
        }
      ],
      "name": "getWinningCount",
      "outputs": [
        {
          "name": "winningCount",
          "type": "uint256"
        }
      ],
      "payable": false,
      "stateMutability": "view",
      "type": "function"
    },
    {
      "constant": true,
      "inputs": [],
      "name": "period",
      "outputs": [
        {
          "name": "",
          "type": "uint8"
        }
      ],
      "payable": false,
      "stateMutability": "view",
      "type": "function"
    },
    {
      "constant": true,
      "inputs": [
        {
          "name": "_disputeID",
          "type": "uint256"
        },
        {
          "name": "_extraData",
          "type": "bytes"
        }
      ],
      "name": "appealCost",
      "outputs": [
        {
          "name": "fee",
          "type": "uint256"
        }
      ],
      "payable": false,
      "stateMutability": "view",
      "type": "function"
    },
    {
      "constant": false,
      "inputs": [
        {
          "name": "_jurorAddress",
          "type": "address"
        },
        {
          "name": "_disputeID",
          "type": "uint256"
        },
        {
          "name": "_draws",
          "type": "uint256[]"
        }
      ],
      "name": "penalizeInactiveJuror",
      "outputs": [],
      "payable": false,
      "stateMutability": "nonpayable",
      "type": "function"
    },
    {
      "constant": true,
      "inputs": [
        {
          "name": "_extraData",
          "type": "bytes"
        }
      ],
      "name": "arbitrationCost",
      "outputs": [
        {
          "name": "fee",
          "type": "uint256"
        }
      ],
      "payable": false,
      "stateMutability": "view",
      "type": "function"
    },
    {
      "constant": true,
      "inputs": [],
      "name": "minActivatedToken",
      "outputs": [
        {
          "name": "",
          "type": "uint256"
        }
      ],
      "payable": false,
      "stateMutability": "view",
      "type": "function"
    },
    {
      "constant": true,
      "inputs": [],
      "name": "pinakion",
      "outputs": [
        {
          "name": "",
          "type": "address"
        }
      ],
      "payable": false,
      "stateMutability": "view",
      "type": "function"
    },
    {
      "constant": true,
      "inputs": [
        {
          "name": "_jurorAddress",
          "type": "address"
        },
        {
          "name": "_disputeID",
          "type": "uint256"
        },
        {
          "name": "_draws",
          "type": "uint256[]"
        }
      ],
      "name": "validDraws",
      "outputs": [
        {
          "name": "valid",
          "type": "bool"
        }
      ],
      "payable": false,
      "stateMutability": "view",
      "type": "function"
    },
    {
      "inputs": [
        {
          "name": "_pinakion",
          "type": "address"
        },
        {
          "name": "_rng",
          "type": "address"
        },
        {
          "name": "_timePerPeriod",
          "type": "uint256[5]"
        }
      ],
      "payable": false,
      "stateMutability": "nonpayable",
      "type": "constructor"
    },
    {
      "anonymous": false,
      "inputs": [
        {
          "indexed": false,
          "name": "_period",
          "type": "uint8"
        }
      ],
      "name": "NewPeriod",
      "type": "event"
    },
    {
      "anonymous": false,
      "inputs": [
        {
          "indexed": true,
          "name": "_account",
          "type": "address"
        },
        {
          "indexed": false,
          "name": "_disputeID",
          "type": "uint256"
        },
        {
          "indexed": false,
          "name": "_amount",
          "type": "int256"
        }
      ],
      "name": "TokenShift",
      "type": "event"
    },
    {
      "anonymous": false,
      "inputs": [
        {
          "indexed": true,
          "name": "_account",
          "type": "address"
        },
        {
          "indexed": false,
          "name": "_disputeID",
          "type": "uint256"
        },
        {
          "indexed": false,
          "name": "_amount",
          "type": "uint256"
        }
      ],
      "name": "ArbitrationReward",
      "type": "event"
    },
    {
      "anonymous": false,
      "inputs": [
        {
          "indexed": false,
          "name": "_disputeID",
          "type": "uint256"
        }
      ],
      "name": "AppealPossible",
      "type": "event"
    },
    {
      "anonymous": false,
      "inputs": [
        {
          "indexed": true,
          "name": "_disputeID",
          "type": "uint256"
        },
        {
          "indexed": false,
          "name": "_arbitrable",
          "type": "address"
        }
      ],
      "name": "DisputeCreation",
      "type": "event"
    },
    {
      "anonymous": false,
      "inputs": [
        {
          "indexed": true,
          "name": "_disputeID",
          "type": "uint256"
        },
        {
          "indexed": false,
          "name": "_arbitrable",
          "type": "address"
        }
      ],
      "name": "AppealDecision",
      "type": "event"
    }
  ],
  "bytecode": "0x606060405266b1a2bc2ec5000060025560038060006101000a81548161ffff021916908361ffff16021790555067016345785d8a00006004556107d0600a556001600b5534156200004f57600080fd5b60405160e0806200357e8339810160405280805190602001909190805190602001909150826000806101000a81548173ffffffffffffffffffffffffffffffffffffffff021916908373ffffffffffffffffffffffffffffffffffffffff16021790555081600160006101000a81548173ffffffffffffffffffffffffffffffffffffffff021916908373ffffffffffffffffffffffffffffffffffffffff16021790555042600c819055508060059060056200010e92919062000118565b5050505062000185565b82600581019282156200014a579160200282015b82811115620001495782518255916020019190600101906200012c565b5b5090506200015991906200015d565b5090565b6200018291905b808211156200017e57600081600090555060010162000164565b5090565b90565b6133e980620001956000396000f3006060604052600436106101e3576000357c0100000000000000000000000000000000000000000000000000000000900463ffffffff16806302d2f349146101e857806310f169e8146102115780631c3db16d1461025657806328764b441461028d57806329c8d3ce146102b65780632dd40301146102d95780632e1a7d4d146103105780633cec9309146103335780633f58f8c01461035c57806347e7ef24146103c857806349912f881461040a578063564a565d146104655780635e3568b8146105085780636c9732481461053157806370d17adb1461057a57806382495626146105dd5780638bb0487514610652578063a10e6d2814610675578063a9ed83cc1461069e578063ac74bcde146106a8578063b241ff03146106d9578063b3c7618e146106ee578063b5040f0a14610737578063baaaaad21461078d578063c13517e1146107c4578063c15a679114610833578063c8860f4114610856578063ccbac9f514610896578063d605787b146108bf578063db1d0fd514610914578063dca5f6b01461093d578063e07a31c7146109a6578063ef78d4fd146109e6578063f23f16e614610a1d578063f55ab98714610a97578063f7434ea914610b19578063f971545814610b8a578063fbf405b014610bb3578063fe69dacd14610c08575b600080fd5b34156101f357600080fd5b6101fb610ca2565b6040518082815260200191505060405180910390f35b341561021c57600080fd5b6102326004808035906020019091905050610ca8565b6040518082600281111561024257fe5b60ff16815260200191505060405180910390f35b341561026157600080fd5b6102776004808035906020019091905050610db6565b6040518082815260200191505060405180910390f35b341561029857600080fd5b6102a0610e07565b6040518082815260200191505060405180910390f35b34156102c157600080fd5b6102d76004808035906020019091905050610e0d565b005b34156102e457600080fd5b6102fa6004808035906020019091905050610ef3565b6040518082815260200191505060405180910390f35b341561031b57600080fd5b6103316004808035906020019091905050610f43565b005b341561033e57600080fd5b6103466110d3565b6040518082815260200191505060405180910390f35b341561036757600080fd5b6103c66004808035906020019091908035906020019091908035906020019082018035906020019080806020026020016040519081016040528093929190818152602001838360200280828437820191505050505050919050506110d9565b005b34156103d357600080fd5b610408600480803573ffffffffffffffffffffffffffffffffffffffff169060200190919080359060200190919050506114bc565b005b610463600480803590602001909190803590602001908201803590602001908080601f01602080910402602001604051908101604052809392919081815260200183838082843782019150505050505091905050611693565b005b341561047057600080fd5b610486600480803590602001909190505061176d565b604051808873ffffffffffffffffffffffffffffffffffffffff1673ffffffffffffffffffffffffffffffffffffffff1681526020018781526020018681526020018581526020018461ffff1661ffff1681526020018381526020018260038111156104ee57fe5b60ff16815260200197505050505050505060405180910390f35b341561051357600080fd5b61051b6117f9565b6040518082815260200191505060405180910390f35b341561053c57600080fd5b61056460048080359060200190919080359060200190919080359060200190919050506117ff565b6040518082815260200191505060405180910390f35b341561058557600080fd5b6105c3600480803590602001909190803573ffffffffffffffffffffffffffffffffffffffff1690602001909190803590602001909190505061185a565b604051808215151515815260200191505060405180910390f35b34156105e857600080fd5b61061060048080359060200190919080359060200190919080359060200190919050506119a9565b604051808273ffffffffffffffffffffffffffffffffffffffff1673ffffffffffffffffffffffffffffffffffffffff16815260200191505060405180910390f35b341561065d57600080fd5b6106736004808035906020019091905050611a2b565b005b341561068057600080fd5b610688611b80565b6040518082815260200191505060405180910390f35b6106a6611b86565b005b34156106b357600080fd5b6106bb611cc6565b604051808261ffff1661ffff16815260200191505060405180910390f35b34156106e457600080fd5b6106ec611cda565b005b34156106f957600080fd5b61072160048080359060200190919080359060200190919080359060200190919050506120cf565b6040518082815260200191505060405180910390f35b341561074257600080fd5b610777600480803590602001909190803573ffffffffffffffffffffffffffffffffffffffff16906020019091905050612131565b6040518082815260200191505060405180910390f35b341561079857600080fd5b6107ae6004808035906020019091905050612199565b6040518082815260200191505060405180910390f35b61081d600480803590602001909190803590602001908201803590602001908080601f016020809104026020016040519081016040528093929190818152602001838380828437820191505050505050919050506121b3565b6040518082815260200191505060405180910390f35b341561083e57600080fd5b610854600480803590602001909190505061236f565b005b341561086157600080fd5b610880600480803590602001909190803590602001909190505061298d565b6040518082815260200191505060405180910390f35b34156108a157600080fd5b6108a96129d6565b6040518082815260200191505060405180910390f35b34156108ca57600080fd5b6108d26129dc565b604051808273ffffffffffffffffffffffffffffffffffffffff1673ffffffffffffffffffffffffffffffffffffffff16815260200191505060405180910390f35b341561091f57600080fd5b610927612a02565b6040518082815260200191505060405180910390f35b341561094857600080fd5b610974600480803573ffffffffffffffffffffffffffffffffffffffff16906020019091905050612a08565b604051808681526020018581526020018481526020018381526020018281526020019550505050505060405180910390f35b34156109b157600080fd5b6109d06004808035906020019091908035906020019091905050612a3e565b6040518082815260200191505060405180910390f35b34156109f157600080fd5b6109f9612a87565b60405180826004811115610a0957fe5b60ff16815260200191505060405180910390f35b3415610a2857600080fd5b610a81600480803590602001909190803590602001908201803590602001908080601f01602080910402602001604051908101604052809392919081815260200183838082843782019150505050505091905050612a9a565b6040518082815260200191505060405180910390f35b3415610aa257600080fd5b610b17600480803573ffffffffffffffffffffffffffffffffffffffff1690602001909190803590602001909190803590602001908201803590602001908080602002602001604051908101604052809392919081815260200183836020028082843782019150505050505091905050612ada565b005b3415610b2457600080fd5b610b74600480803590602001908201803590602001908080601f01602080910402602001604051908101604052809392919081815260200183838082843782019150505050505091905050612d7d565b6040518082815260200191505060405180910390f35b3415610b9557600080fd5b610b9d612d97565b6040518082815260200191505060405180910390f35b3415610bbe57600080fd5b610bc6612d9d565b604051808273ffffffffffffffffffffffffffffffffffffffff1673ffffffffffffffffffffffffffffffffffffffff16815260200191505060405180910390f35b3415610c1357600080fd5b610c88600480803573ffffffffffffffffffffffffffffffffffffffff1690602001909190803590602001909190803590602001908201803590602001908080602002602001604051908101604052809392919081815260200183836020028082843782019150505050505091905050612dc2565b604051808215151515815260200191505060405180910390f35b600c5481565b600080601283815481101515610cba57fe5b90600052602060002090600a02019050600b5481600201548260010154011015610ce75760029150610db0565b600b5481600201548260010154011415610dab5760006003811115610d0857fe5b8160060160009054906101000a900460ff166003811115610d2557fe5b1415610da25760036004811115610d3857fe5b601060009054906101000a900460ff166004811115610d5357fe5b1015610d625760009150610db0565b60036004811115610d6f57fe5b601060009054906101000a900460ff166004811115610d8a57fe5b1415610d995760019150610db0565b60029150610db0565b60029150610db0565b600091505b50919050565b600080601283815481101515610dc857fe5b90600052602060002090600a02019050806008018160020154815481101515610ded57fe5b906000526020600020906003020160000154915050919050565b600e5481565b600080806004811115610e1c57fe5b601060009054906101000a900460ff166004811115610e3757fe5b141515610e4357600080fd5b601160003373ffffffffffffffffffffffffffffffffffffffff1673ffffffffffffffffffffffffffffffffffffffff168152602001908152602001600020915081600001548311151515610e9757600080fd5b6004548310151515610ea857600080fd5b600b54826002015414151515610ebd57600080fd5b600b548260020181905550600d54826003018190555082600d60008282540192505081905550600d548260040181905550505050565b600080601283815481101515610f0557fe5b90600052602060002090600a020190506001816002015460020a60018360040160009054906101000a900461ffff160161ffff160203915050919050565b6000601160003373ffffffffffffffffffffffffffffffffffffffff1673ffffffffffffffffffffffffffffffffffffffff16815260200190815260200160002090508060000154816001015411151515610f9d57600080fd5b80600101548160000154038211151515610fb657600080fd5b600b54816002015414151515610fcb57600080fd5b8181600001600082825403925050819055506000809054906101000a900473ffffffffffffffffffffffffffffffffffffffff1673ffffffffffffffffffffffffffffffffffffffff1663a9059cbb33846000604051602001526040518363ffffffff167c0100000000000000000000000000000000000000000000000000000000028152600401808373ffffffffffffffffffffffffffffffffffffffff1673ffffffffffffffffffffffffffffffffffffffff16815260200182815260200192505050602060405180830381600087803b15156110a957600080fd5b6102c65a03f115156110ba57600080fd5b5050506040518051905015156110cf57600080fd5b5050565b600d5481565b600080600080600060028060048111156110ef57fe5b601060009054906101000a900460ff16600481111561110a57fe5b14151561111657600080fd5b60128981548110151561112557fe5b90600052602060002090600a02019550601160003373ffffffffffffffffffffffffffffffffffffffff1673ffffffffffffffffffffffffffffffffffffffff168152602001908152602001600020945085600801866002015481548110151561118b57fe5b90600052602060002090600302019350600b548660090160003373ffffffffffffffffffffffffffffffffffffffff1673ffffffffffffffffffffffffffffffffffffffff16815260200190815260200160002054141515156111ed57600080fd5b8560030154881115151561120057600080fd5b61120b338a89612dc2565b151561121657600080fd5b600b548660090160003373ffffffffffffffffffffffffffffffffffffffff1673ffffffffffffffffffffffffffffffffffffffff1681526020019081526020016000208190555086518460020160008a81526020019081526020016000206000828254019250508190555083600201600089815260200190815260200160002054846001015410156112cf5783600201600089815260200190815260200160002054846001018190555087846000018190555061130a565b8360020160008981526020019081526020016000205484600101541480156112f957506000875114155b1561130957600084600001819055505b5b600092505b86518310156113e95785600701866002015481548110151561132d57fe5b9060005260206000209001805480600101828161134a919061313a565b9160005260206000209060020201600060408051908101604052803373ffffffffffffffffffffffffffffffffffffffff1681526020018c815250909190915060008201518160000160006101000a81548173ffffffffffffffffffffffffffffffffffffffff021916908373ffffffffffffffffffffffffffffffffffffffff1602179055506020820151816001015550505082600101925061130f565b612710600454600a54028851028115156113ff57fe5b048560010160008282540192505081905550856005015487510291503373ffffffffffffffffffffffffffffffffffffffff166108fc839081150290604051600060405180830381858888f19350505050151561145b57600080fd5b3373ffffffffffffffffffffffffffffffffffffffff167f6aabe3309b819a2115cccbcff8b8284764a6a4db2ff85b12d8cc696b945192cb8a84604051808381526020018281526020019250505060405180910390a2505050505050505050565b6000809054906101000a900473ffffffffffffffffffffffffffffffffffffffff168073ffffffffffffffffffffffffffffffffffffffff163373ffffffffffffffffffffffffffffffffffffffff1614151561151857600080fd5b6000809054906101000a900473ffffffffffffffffffffffffffffffffffffffff1673ffffffffffffffffffffffffffffffffffffffff166323b872dd8430856000604051602001526040518463ffffffff167c0100000000000000000000000000000000000000000000000000000000028152600401808473ffffffffffffffffffffffffffffffffffffffff1673ffffffffffffffffffffffffffffffffffffffff1681526020018373ffffffffffffffffffffffffffffffffffffffff1673ffffffffffffffffffffffffffffffffffffffff1681526020018281526020019350505050602060405180830381600087803b151561161857600080fd5b6102c65a03f1151561162957600080fd5b50505060405180519050151561163e57600080fd5b81601160008573ffffffffffffffffffffffffffffffffffffffff1673ffffffffffffffffffffffffffffffffffffffff16815260200190815260200160002060000160008282540192505081905550505050565b600060038060048111156116a357fe5b601060009054906101000a900460ff1660048111156116be57fe5b1415156116ca57600080fd5b6116d48484612f84565b6012848154811015156116e357fe5b90600052602060002090600a020191506116fd8484612a9a565b341015151561170b57600080fd5b600b54826002015483600101540114151561172557600080fd5b816002016000815480929190600101919050555081600701805480919060010161174f919061316c565b508160080180548091906001016117669190613198565b5050505050565b60128181548110151561177c57fe5b90600052602060002090600a02016000915090508060000160009054906101000a900473ffffffffffffffffffffffffffffffffffffffff16908060010154908060020154908060030154908060040160009054906101000a900461ffff16908060050154908060060160009054906101000a900460ff16905087565b600b5481565b600060128481548110151561181057fe5b90600052602060002090600a02016008018381548110151561182e57fe5b906000526020600020906003020160020160008381526020019081526020016000205490509392505050565b60008060008060128781548110151561186f57fe5b90600052602060002090600a02019250601160008773ffffffffffffffffffffffffffffffffffffffff1673ffffffffffffffffffffffffffffffffffffffff1681526020019081526020016000209150600b5482600201541415806118e15750600b54836002015484600101540114155b806119125750600160048111156118f457fe5b601060009054906101000a900460ff16600481111561190f57fe5b11155b80611924575061192187610ef3565b85115b8061192f5750600085145b8061193c57506000600d54145b1561194a576000935061199f565b600d54600f54888760405180848152602001838152602001828152602001935050505060405180910390206001900481151561198257fe5b0690508160030154811015801561199c5750816004015481105b93505b5050509392505050565b60006012848154811015156119ba57fe5b90600052602060002090600a0201600701838154811015156119d857fe5b9060005260206000209001828154811015156119f057fe5b906000526020600020906002020160000160009054906101000a900473ffffffffffffffffffffffffffffffffffffffff1690509392505050565b6000601282815481101515611a3c57fe5b90600052602060002090600a0201905060026003811115611a5957fe5b8160060160009054906101000a900460ff166003811115611a7657fe5b141515611a8257600080fd5b60038160060160006101000a81548160ff02191690836003811115611aa357fe5b02179055508060000160009054906101000a900473ffffffffffffffffffffffffffffffffffffffff1673ffffffffffffffffffffffffffffffffffffffff1663311a6c5683836008018460020154815481101515611afe57fe5b9060005260206000209060030201600001546040518363ffffffff167c01000000000000000000000000000000000000000000000000000000000281526004018083815260200182815260200192505050600060405180830381600087803b1515611b6857600080fd5b6102c65a03f11515611b7957600080fd5b5050505050565b60025481565b6000601160003373ffffffffffffffffffffffffffffffffffffffff1673ffffffffffffffffffffffffffffffffffffffff16815260200190815260200160002090503481600001600082825401925050819055506000809054906101000a900473ffffffffffffffffffffffffffffffffffffffff1673ffffffffffffffffffffffffffffffffffffffff166340c10f1930346000604051602001526040518363ffffffff167c0100000000000000000000000000000000000000000000000000000000028152600401808373ffffffffffffffffffffffffffffffffffffffff1673ffffffffffffffffffffffffffffffffffffffff16815260200182815260200192505050602060405180830381600087803b1515611ca757600080fd5b6102c65a03f11515611cb857600080fd5b505050604051805190505050565b600360009054906101000a900461ffff1681565b6005601060009054906101000a900460ff166004811115611cf757fe5b60ff16600581101515611d0657fe5b0154600c54420310151515611d1a57600080fd5b60006004811115611d2757fe5b601060009054906101000a900460ff166004811115611d4257fe5b1415611e215760014301600e81905550600160009054906101000a900473ffffffffffffffffffffffffffffffffffffffff1673ffffffffffffffffffffffffffffffffffffffff16637b9c34e0600e546040518263ffffffff167c010000000000000000000000000000000000000000000000000000000002815260040180828152602001915050600060405180830381600087803b1515611de457600080fd5b6102c65a03f11515611df557600080fd5b5050506001601060006101000a81548160ff02191690836004811115611e1757fe5b0217905550612072565b60016004811115611e2e57fe5b601060009054906101000a900460ff166004811115611e4957fe5b1415611f4657600160009054906101000a900473ffffffffffffffffffffffffffffffffffffffff1673ffffffffffffffffffffffffffffffffffffffff16631c73601e600e546000604051602001526040518263ffffffff167c010000000000000000000000000000000000000000000000000000000002815260040180828152602001915050602060405180830381600087803b1515611eea57600080fd5b6102c65a03f11515611efb57600080fd5b50505060405180519050600f819055506000600f5414151515611f1d57600080fd5b6002601060006101000a81548160ff02191690836004811115611f3c57fe5b0217905550612071565b60026004811115611f5357fe5b601060009054906101000a900460ff166004811115611f6e57fe5b1415611f9d576003601060006101000a81548160ff02191690836004811115611f9357fe5b0217905550612070565b60036004811115611faa57fe5b601060009054906101000a900460ff166004811115611fc557fe5b1415611ff4576004601060006101000a81548160ff02191690836004811115611fea57fe5b021790555061206f565b60048081111561200057fe5b601060009054906101000a900460ff16600481111561201b57fe5b141561206e576000601060006101000a81548160ff0219169083600481111561204057fe5b0217905550600b60008154600101919050819055506000600d819055506000600e819055506000600f819055505b5b5b5b5b42600c819055507f71352b32ff1fd3e4f8e54087bea4b9183a81000f510a009d7bb1edf41e254e2a601060009054906101000a900460ff16604051808260048111156120ba57fe5b60ff16815260200191505060405180910390a1565b60006012848154811015156120e057fe5b90600052602060002090600a0201600701838154811015156120fe57fe5b90600052602060002090018281548110151561211657fe5b90600052602060002090600202016001015490509392505050565b600060128381548110151561214257fe5b90600052602060002090600a020160090160008373ffffffffffffffffffffffffffffffffffffffff1673ffffffffffffffffffffffffffffffffffffffff16815260200190815260200160002054905092915050565b6005816005811015156121a857fe5b016000915090505481565b60008060006121c184613008565b91506121cc84612d7d565b34101515156121da57600080fd5b601280548091906001016121ee91906131ca565b92506012838154811015156121ff57fe5b90600052602060002090600a02019050338160000160006101000a81548173ffffffffffffffffffffffffffffffffffffffff021916908373ffffffffffffffffffffffffffffffffffffffff1602179055506001600481111561225f57fe5b601060009054906101000a900460ff16600481111561227a57fe5b101561229057600b54816001018190555061229f565b6001600b540181600101819055505b848160030181905550818160040160006101000a81548161ffff021916908361ffff16021790555060025481600501819055508060070180548091906001016122e8919061316c565b508060080180548091906001016122ff9190613198565b50827f141dfc18aa6a56fc816f44f0e9e2f1ebc92b15ab167770e17db5b084c10ed99533604051808273ffffffffffffffffffffffffffffffffffffffff1673ffffffffffffffffffffffffffffffffffffffff16815260200191505060405180910390a2829250505092915050565b6000806000806000806000806000806000600480600481111561238e57fe5b601060009054906101000a900460ff1660048111156123a957fe5b1415156123b557600080fd5b60128d8154811015156123c457fe5b90600052602060002090600a02019b50600060038111156123e157fe5b8c60060160009054906101000a900460ff1660038111156123fe57fe5b14151561240a57600080fd5b600b548c600201548d60010154011115151561242557600080fd5b8b6008018c6002015481548110151561243a57fe5b9060005260206000209060030201600001549a50612710600454600a540281151561246157fe5b049950600098505b8b60020154891115156129585760008b1415806124e257508b6008018c6002015481548110151561249657fe5b9060005260206000209060030201600101548c6008018d600201548154811015156124bd57fe5b9060005260206000209060030201600201600080815260200190815260200160002054145b15612866576000975060009650600095505b8b6007018981548110151561250557fe5b90600052602060002090018054905086101561268a578b6007018981548110151561252c57fe5b90600052602060002090018681548110151561254457fe5b906000526020600020906002020194508a856001015414151561267857601160008660000160009054906101000a900473ffffffffffffffffffffffffffffffffffffffff1673ffffffffffffffffffffffffffffffffffffffff1673ffffffffffffffffffffffffffffffffffffffff168152602001908152602001600020935083600001548a106125db5783600001546125dd565b895b92508284600001600082825403925050819055508460000160009054906101000a900473ffffffffffffffffffffffffffffffffffffffff1673ffffffffffffffffffffffffffffffffffffffff167f72f86a9d9fab69e4814ca24b54076a6e59b7463230974d7b72bed55777fbcf6c8e85600003604051808381526020018281526020019250505060405180910390a2828801975061267f565b8660010196505b8560010195506124f4565b60008714156126e85787601160003073ffffffffffffffffffffffffffffffffffffffff1673ffffffffffffffffffffffffffffffffffffffff16815260200190815260200160002060000160008282540192505081905550612865565b86888115156126f357fe5b049150600095505b8b6007018981548110151561270c57fe5b906000526020600020900180549050861015612864578b6007018981548110151561273357fe5b90600052602060002090018681548110151561274b57fe5b906000526020600020906002020194508a8560010154141561285957601160008660000160009054906101000a900473ffffffffffffffffffffffffffffffffffffffff1673ffffffffffffffffffffffffffffffffffffffff1673ffffffffffffffffffffffffffffffffffffffff16815260200190815260200160002093508184600001600082825401925050819055508460000160009054906101000a900473ffffffffffffffffffffffffffffffffffffffff1673ffffffffffffffffffffffffffffffffffffffff167f72f86a9d9fab69e4814ca24b54076a6e59b7463230974d7b72bed55777fbcf6c8e84604051808381526020018281526020019250505060405180910390a25b8560010195506126fb565b5b5b600095505b8b6007018981548110151561287c57fe5b90600052602060002090018054905086101561294d578b600701898154811015156128a357fe5b9060005260206000209001868154811015156128bb57fe5b90600052602060002090600202019450601160008660000160009054906101000a900473ffffffffffffffffffffffffffffffffffffffff1673ffffffffffffffffffffffffffffffffffffffff1673ffffffffffffffffffffffffffffffffffffffff168152602001908152602001600020935089846001016000828254039250508190555085600101955061286b565b886001019850612469565b60028c60060160006101000a81548160ff0219169083600381111561297957fe5b021790555050505050505050505050505050565b600060128381548110151561299e57fe5b90600052602060002090600a0201600801828154811015156129bc57fe5b906000526020600020906003020160000154905092915050565b600f5481565b600160009054906101000a900473ffffffffffffffffffffffffffffffffffffffff1681565b600a5481565b60116020528060005260406000206000915090508060000154908060010154908060020154908060030154908060040154905085565b6000601283815481101515612a4f57fe5b90600052602060002090600a020160080182815481101515612a6d57fe5b906000526020600020906003020160010154905092915050565b601060009054906101000a900460ff1681565b600080601284815481101515612aac57fe5b90600052602060002090600a0201905080600501546001612acc86610ef3565b600202010291505092915050565b6000806000601285815481101515612aee57fe5b90600052602060002090600a02019250601160008773ffffffffffffffffffffffffffffffffffffffff1673ffffffffffffffffffffffffffffffffffffffff168152602001908152602001600020915060026004811115612b4c57fe5b601060009054906101000a900460ff166004811115612b6757fe5b111515612b7357600080fd5b600b548360090160008873ffffffffffffffffffffffffffffffffffffffff1673ffffffffffffffffffffffffffffffffffffffff1681526020019081526020016000205414151515612bc557600080fd5b600b548360090160008873ffffffffffffffffffffffffffffffffffffffff1673ffffffffffffffffffffffffffffffffffffffff16815260200190815260200160002081905550612c18868686612dc2565b1515612c2357600080fd5b612710600a5460026004548751020202811515612c3c57fe5b04905081600101548260000154038110612c60578160010154826000015403612c62565b805b9050808260000160008282540392505081905550600281811515612c8257fe5b04601160003373ffffffffffffffffffffffffffffffffffffffff1673ffffffffffffffffffffffffffffffffffffffff16815260200190815260200160002060000160008282540192505081905550600281811515612cde57fe5b04601160003073ffffffffffffffffffffffffffffffffffffffff1673ffffffffffffffffffffffffffffffffffffffff168152602001908152602001600020600001600082825401925050819055503373ffffffffffffffffffffffffffffffffffffffff166108fc84600501548651029081150290604051600060405180830381858888f193505050501515612d7557600080fd5b505050505050565b6000600254612d8b83613008565b61ffff16029050919050565b60045481565b6000809054906101000a900473ffffffffffffffffffffffffffffffffffffffff1681565b6000806000806000806000809550601160008b73ffffffffffffffffffffffffffffffffffffffff1673ffffffffffffffffffffffffffffffffffffffff1681526020019081526020016000209450601289815481101515612e2057fe5b90600052602060002090600a02019350612e3989610ef3565b9250600b548560020154141515612e535760009650612f77565b600b548460020154856001015401141515612e715760009650612f77565b60016004811115612e7e57fe5b601060009054906101000a900460ff166004811115612e9957fe5b111515612ea95760009650612f77565b5b8751821015612f7257858883815181101515612ec257fe5b90602001906020020151111515612edc5760009650612f77565b8782815181101515612eea57fe5b90602001906020020151955082861115612f075760009650612f77565b600d54600f548a88604051808481526020018381526020018281526020019350505050604051809103902060019004811515612f3f57fe5b06905084600301548110151515612f5557600080fd5b846004015481101515612f6757600080fd5b816001019150612eaa565b600196505b5050505050509392505050565b8181612f908282612a9a565b3410151515612f9e57600080fd5b837f9c9b64db9e130f48381bf697abf638e73117dbfbfd7a4484f2da3ba188f4187d33604051808273ffffffffffffffffffffffffffffffffffffffff1673ffffffffffffffffffffffffffffffffffffffff16815260200191505060405180910390a250505050565b600060028251101561302c57600360009054906101000a900461ffff169050613135565b81600181518110151561303b57fe5b9060200101517f010000000000000000000000000000000000000000000000000000000000000090047f0100000000000000000000000000000000000000000000000000000000000000027f0100000000000000000000000000000000000000000000000000000000000000900460088360008151811015156130ba57fe5b9060200101517f010000000000000000000000000000000000000000000000000000000000000090047f0100000000000000000000000000000000000000000000000000000000000000027f0100000000000000000000000000000000000000000000000000000000000000900461ffff169060020a020190505b919050565b8154818355818115116131675760020281600202836000526020600020918201910161316691906131fc565b5b505050565b81548183558181151161319357818360005260206000209182019101613192919061324a565b5b505050565b8154818355818115116131c5576003028160030283600052602060002091820191016131c49190613276565b5b505050565b8154818355818115116131f757600a0281600a0283600052602060002091820191016131f691906132a5565b5b505050565b61324791905b8082111561324357600080820160006101000a81549073ffffffffffffffffffffffffffffffffffffffff0219169055600182016000905550600201613202565b5090565b90565b61327391905b8082111561326f57600081816132669190613354565b50600101613250565b5090565b90565b6132a291905b8082111561329e5760008082016000905560018201600090555060030161327c565b5090565b90565b61335191905b8082111561334d57600080820160006101000a81549073ffffffffffffffffffffffffffffffffffffffff02191690556001820160009055600282016000905560038201600090556004820160006101000a81549061ffff021916905560058201600090556006820160006101000a81549060ff02191690556007820160006133349190613378565b6008820160006133449190613399565b50600a016132ab565b5090565b90565b508054600082556002029060005260206000209081019061337591906131fc565b50565b5080546000825590600052602060002090810190613396919061324a565b50565b50805460008255600302906000526020600020908101906133ba9190613276565b505600a165627a7a7230582048a333f107569f4f248a3e29e5f26be77631be5c17972d824405c239234b87550029",
  "source": "/**\n *  @title Kleros POC\n *  @author Clment Lesaege - <clement@lesaege.com>\n *  This code implements a simple version of Kleros.\n *  Bug Bounties: This code hasn't undertaken a bug bounty program yet.\n */\n\npragma solidity ^0.4.15;\n\nimport \"kleros-interaction/contracts/standard/arbitration/Arbitrator.sol\";\nimport \"./PinakionPOC.sol\";\nimport \"kleros-interaction/contracts/standard/rng/RNG.sol\";\n\n\n\ncontract KlerosPOC is Arbitrator {\n    \n    // **************************** //\n    // *    Contract variables    * //\n    // **************************** //\n    \n    // Variables which should not change after initialization.\n    PinakionPOC public pinakion;\n    \n    // Variables which will subject to the governance mechanism.\n    // Note they will only be able to be changed during the activation period (because a session assumes they don't change after it).\n    RNG public rng; // Random Number Generator used to draw jurors.\n    uint public arbitrationFeePerJuror = 0.05 ether; // The fee which will be paid to each juror.\n    uint16 public defaultNumberJuror = 3; // Number of draw juror unless specified otherwise.\n    uint public minActivatedToken = 0.1 * 1e18; // Minimum of tokens to be activated (in basic units).\n    uint[5] public timePerPeriod; // The minimum time each period lasts.\n    uint public alpha = 2000; // alpha in .\n    uint constant ALPHA_DIVISOR = 1e4; // Amount we need to dived alpha in  to get the float value of alpha.\n    \n    // Variables changing during day to day interaction.\n    uint public session = 1;      // Current session of the court.\n    uint public lastPeriodChange; // The last time time we changed of period.\n    uint public segmentSize;      // Size of the segment of activated tokens.\n    uint public rnBlock;          // The block linked with the RN which is requested.\n    uint public randomNumber;     // Random number of the session.\n    \n    enum Period {\n        Activation, // When juror can activate their tokens and parties give evidences.\n        Draw,       // When jurors are drawn at random, note that this period is fast.\n        Vote,       // Where jurors can vote on disputes.\n        Appeal,     // When parties can appeal the rulings.\n        Execution   // When where token redistribution occurs and Kleros call the arbitrated contracts.\n    }\n    Period public period;\n    \n    struct Juror {\n        uint balance;      // The amount of token the contract holds for this juror.\n        uint atStake;      // Total number of tokens the juror can loose in disputes he is drawn in. Those tokens are locked. Note that we can have atStake>balance but it should be statistically unlikely and does not pose issues.\n        uint lastSession;  // Last session the tokens were activated.\n        uint segmentStart; // Start of the segment of activated tokens.\n        uint segmentEnd;   // End of the segment of activated tokens.\n    }\n    mapping (address => Juror) public jurors;\n    \n    struct Vote {\n        address account; // The juror who casted the vote.\n        uint ruling;     // The ruling which was given.\n    }\n    struct VoteCounter {\n        uint winningChoice; // The choice which currently has the highest amount of votes. Is 0 in case of a tie.\n        uint winningCount;  // The number of votes for winningChoice. Or for the choices which are tied.\n        mapping (uint => uint) voteCount; // voteCount[choice] is the number of votes for choice.\n    }\n    enum DisputeState {\n        Open,       // The dispute is opened but not outcome is available yet (this include when jurors voted but appeal is still possible).\n        Resolving,  // The token repartition has started. Note that if it's done in just one call, this state is skipped.\n        Executable, // The arbitrated contract can be called to enforce the decision.\n        Executed    // Everything has been done and the dispute can't be interacted with anymore.\n    }\n    struct Dispute {\n        Arbitrable arbitrated;       // Contract to be arbitrated.\n        uint session;                // First session the dispute was schedule.\n        uint appeals;                // Number of appeals.\n        uint choices;                // The number of choices available to the jurors.\n        uint16 initialNumberJurors;  // The initial number of jurors.\n        uint arbitrationFeePerJuror; // The fee which will be paid to each juror.\n        DisputeState state;          // The state of the dispute.\n        Vote[][] votes;              // The votes in the form vote[appeals][voteID].\n        VoteCounter[] voteCounter;   // The vote counters in the form voteCounter[appeals].\n        mapping (address => uint) lastSessionVote; // Last session a juror has voted on this dispute. Is 0 if he never did.\n    }\n    Dispute[] public disputes;\n    \n    // **************************** //\n    // *          Events          * //\n    // **************************** //\n    \n    /** @dev Emitted when we pass to a new period.\n     *  @param _period The new period.\n     */\n    event NewPeriod(Period _period);\n    \n    /** @dev Emitted when a juror wins or loses tokens.\n      * @param _account The juror affected.\n      * @param _disputeID The ID of the dispute.\n      * @param _amount The amount of parts of token which was won. Can be negative for lost amounts.\n      */\n    event TokenShift(address indexed _account, uint _disputeID, int _amount);\n    \n    /** @dev Emited when a juror wins arbitration fees.\n      * @param _account The account affected.\n      * @param _disputeID The ID of the dispute.\n      * @param _amount The amount of weis which was won.\n      */\n    event ArbitrationReward(address indexed _account, uint _disputeID, uint _amount);\n    \n    // **************************** //\n    // *         Modifiers        * //\n    // **************************** //    \n    modifier onlyBy(address _account) { require(msg.sender==_account); _; }\n    modifier onlyDuring(Period _period) { require(period==_period); _;}\n    \n    \n    \n    /** @dev Constructor.\n     *  @param _pinakion The address of the pinakion contract.\n     *  @param _rng The random number generator which will be used.\n     *  @param _timePerPeriod The minimal time for each period.\n     */\n    function KlerosPOC(PinakionPOC _pinakion, RNG _rng, uint[5] _timePerPeriod) public {\n        pinakion=_pinakion;\n        rng=_rng;\n        lastPeriodChange=now;\n        timePerPeriod=_timePerPeriod;\n    }\n    \n    \n    // **************************** //\n    // *  Functions interacting   * //\n    // *  with Pinakion contract  * //\n    // **************************** //\n    \n    /** @dev Deposit pinakions of a juror in the contract. Should be call by the pinakion contract. TRUSTED.\n     *  @param _from The address making the deposit.\n     *  @param _value Amount of fractions of token to deposit.\n     */\n    function deposit(address _from, uint _value) public onlyBy(pinakion) {\n        require(pinakion.transferFrom(_from,this,_value));\n        \n        jurors[_from].balance+=_value;\n    }\n    \n    /** @dev Withdraw tokens. Note that we can't withdraw the tokens which are still atStake. Jurors can't withdraw their tokens if they have activated some during Draw and Vote.\n     *  This is to prevent jurors from withdrawing tokens they could loose.\n     *  @param _value The amount to withdraw.\n     */\n    function withdraw(uint _value) public {\n        Juror storage juror = jurors[msg.sender];\n        require(juror.atStake<=juror.balance); // Make sure that there is no more at stake than owned to avoid overflow.\n        require(_value<=juror.balance-juror.atStake);\n        require(juror.lastSession!=session);\n            \n        juror.balance-=_value;\n        require(pinakion.transfer(msg.sender,_value));\n    }\n    \n    /** @dev Give Pinakions at the rate 1 ETH = 1 PNK.\n     *  Note that in the real Kleros, the token supply will be fixed but for the proof of concept, we prefer to allow users to get some easily to try it.\n     */\n    function buyPinakion() public payable {\n        Juror storage juror = jurors[msg.sender];\n        juror.balance+=msg.value;\n        pinakion.mint(this,msg.value);\n    }\n    \n    // **************************** //\n    // *      Court functions     * //\n    // *    Modifying the state   * //\n    // **************************** //\n    \n    /** @dev To call to go to a new period. TRUSTED.\n     */\n    function passPeriod() public {\n        require(now-lastPeriodChange>=timePerPeriod[uint8(period)]);\n        \n        if (period==Period.Activation) {\n            rnBlock=block.number+1;\n            rng.requestRN(rnBlock);\n            period=Period.Draw;\n        } else if (period==Period.Draw) {\n            randomNumber=rng.getUncorrelatedRN(rnBlock);\n            require(randomNumber!=0);\n            period=Period.Vote;\n        } else if (period==Period.Vote) {\n            period=Period.Appeal;\n        } else if (period==Period.Appeal) {\n            period=Period.Execution;\n        } else if (period==Period.Execution) {\n            period=Period.Activation;\n            ++session;\n            segmentSize=0;\n            rnBlock=0;\n            randomNumber=0;\n        }\n        \n        \n        lastPeriodChange=now;\n        NewPeriod(period);\n    }\n  \n  \n    /** @dev Activate tokens in order to have chances of being drawn. Note that once tokens are activated, there is no possibility of activating more.\n     *  @param _value Amount of fractions of token to activate.\n     */\n    function activateTokens(uint _value) public onlyDuring(Period.Activation) {\n        Juror storage juror = jurors[msg.sender];\n        require(_value<=juror.balance);\n        require(_value>=minActivatedToken);\n        require(juror.lastSession!=session); // Verify that tokens were not already activated for this session.\n        \n        juror.lastSession=session;\n        juror.segmentStart=segmentSize;\n        segmentSize+=_value;\n        juror.segmentEnd=segmentSize;\n        \n    }\n    \n    /** @dev Vote a ruling. Juror must input the draw ID he was drawn.\n     *  Note that the complexity is O(d), where d is amount of times the juror was drawn.\n     *  Since being drawn multiple time is a rare occurrence and that a juror can always vote with less weight than it has, it is not a problem.\n     *  @param _disputeID The ID of the dispute the juror was drawn.\n     *  @param _ruling The ruling given.\n     *  @param _draws The list of draws the juror was drawn. It draw numbering starts at 1 and the numbers should be increasing.\n     */\n    function voteRuling(uint _disputeID, uint _ruling, uint[] _draws) public onlyDuring(Period.Vote) {\n        Dispute storage dispute = disputes[_disputeID];\n        Juror storage juror = jurors[msg.sender];\n        VoteCounter storage voteCounter = dispute.voteCounter[dispute.appeals];\n        require(dispute.lastSessionVote[msg.sender] != session); // Make sure he hasn't voted yet.\n        require(_ruling<=dispute.choices);\n        // Note that it throws if the draws are incorrect.\n        require(validDraws(msg.sender,_disputeID,_draws));\n        \n        dispute.lastSessionVote[msg.sender]=session;\n        voteCounter.voteCount[_ruling]+=_draws.length;\n        if (voteCounter.winningCount<voteCounter.voteCount[_ruling]) {\n            voteCounter.winningCount=voteCounter.voteCount[_ruling];\n            voteCounter.winningChoice=_ruling;\n        } else if (voteCounter.winningCount==voteCounter.voteCount[_ruling] && _draws.length!=0) {\n            voteCounter.winningChoice=0; // It's currently a tie.\n        }\n        for (uint i=0;i<_draws.length;++i) {\n            dispute.votes[dispute.appeals].push(Vote({\n                account:msg.sender,\n                ruling:_ruling\n            }));\n        }\n        \n        juror.atStake+=_draws.length*(alpha*minActivatedToken)/ALPHA_DIVISOR;\n        uint feeToPay = _draws.length*dispute.arbitrationFeePerJuror;\n        msg.sender.transfer(feeToPay);\n        ArbitrationReward(msg.sender,_disputeID,feeToPay);\n    }\n    \n    /** @dev Steal part of the tokens of a juror who failed to vote.\n     *  Note that a juror who voted but without all his weight can't be penalized.\n     *  @param _jurorAddress Address of the juror to steal tokens from.\n     *  @param _disputeID The ID of the dispute the juror was drawn.\n     *  @param _draws The list of draws the juror was drawn. It draw numbering starts at 1 and the numbers should be increasing.\n     */\n    function penalizeInactiveJuror(address _jurorAddress, uint _disputeID, uint[] _draws) public {\n        Dispute storage dispute = disputes[_disputeID];\n        Juror storage inactiveJuror = jurors[_jurorAddress];\n        require(period>Period.Vote);\n        require(dispute.lastSessionVote[_jurorAddress]!=session); // Verify the juror hasn't voted.\n        dispute.lastSessionVote[_jurorAddress]=session;\n        require(validDraws(_jurorAddress,_disputeID,_draws));\n        uint penality = _draws.length * minActivatedToken * 2 * alpha / ALPHA_DIVISOR;\n        \n        penality = (penality<inactiveJuror.balance-inactiveJuror.atStake) ? penality : inactiveJuror.balance-inactiveJuror.atStake; // Make sure the penality is not higher than what the juror can lose.\n        inactiveJuror.balance-=penality;\n        jurors[msg.sender].balance+=penality/2; // Give half of the penalty to the caller.\n        jurors[this].balance+=penality/2; // The other half to Kleros.\n        \n        msg.sender.transfer(_draws.length*dispute.arbitrationFeePerJuror);\n    }\n    \n    /** @dev Execute all the token repartition.\n     *  Note that this function could consume to much gas if there is too much votes. It is O(v), where v is the number of votes for this dispute.\n     *  In the next version, there will also be a function to execute it in multiple calls (but note that one shot execution, if possible, is less expensive).\n     *  Note that if no one calls this function during the execution step, the tokens at stake will be locked for ever.\n     *  In next versions Ethereum Alarm Clock or a similar system will be used to make sure the function is called.\n     *  @param _disputeID ID of the dispute.\n     */\n    function oneShotTokenRepartition(uint _disputeID) public onlyDuring(Period.Execution) {\n        Dispute storage dispute = disputes[_disputeID];\n        require(dispute.state==DisputeState.Open);\n        require(dispute.session+dispute.appeals<=session);\n\n        uint winningChoice=dispute.voteCounter[dispute.appeals].winningChoice;\n        uint amountShift=(alpha*minActivatedToken)/ALPHA_DIVISOR;\n        for (uint i=0;i<=dispute.appeals;++i) {\n            // If the result is not a tie, some parties are incoherent. Note that 0 (refuse to arbitrate) winning is not a tie.\n            if (winningChoice!=0 || (dispute.voteCounter[dispute.appeals].voteCount[0] == dispute.voteCounter[dispute.appeals].winningCount)) {\n                uint totalToRedistibute=0;\n                uint nbcoherent=0;\n                // First loop to penalize the incoherent votes.\n                for (uint j=0;j<dispute.votes[i].length;++j) {\n                    Vote storage vote = dispute.votes[i][j];\n                    if (vote.ruling!=winningChoice) {\n                        Juror storage juror = jurors[vote.account];\n                        uint penalty=amountShift<juror.balance ? amountShift : juror.balance;\n                        juror.balance-=penalty;\n                        TokenShift(vote.account,_disputeID,int(-penalty));\n                        totalToRedistibute+=penalty;\n                    } else {\n                        ++nbcoherent;\n                    }\n                }\n                if (nbcoherent==0) { // No one was coherent at this stage. Take the tokens.\n                    jurors[this].balance+=totalToRedistibute;\n                } else { // otherwise, redistribute them.\n                    uint toRedistribute = totalToRedistibute/nbcoherent; // Note that few fractions of tokens can be lost but due to the high amount of decimals we don't care.\n                    // Second loop to redistribute.\n                    for (j=0;j<dispute.votes[i].length;++j) {\n                        vote = dispute.votes[i][j];\n                        if (vote.ruling==winningChoice) {\n                            juror = jurors[vote.account];\n                            juror.balance+=toRedistribute;\n                            TokenShift(vote.account,_disputeID,int(toRedistribute));\n                        }\n                    }\n                }\n            }\n            // Third loop to lower the atStake in order to unlock tokens.\n            for (j=0;j<dispute.votes[i].length;++j) {\n                vote = dispute.votes[i][j];\n                juror = jurors[vote.account];\n                juror.atStake -= amountShift; // Note that it can't underflow due to amountShift not changing between vote and redistribution.\n            }\n        }\n        dispute.state=DisputeState.Executable; // Since it was solved in one shot, go directly to the executable step.\n    }\n    \n    // TODO: Multiple TX token repartition.\n    \n    // **************************** //\n    // *      Court functions     * //\n    // *     Constant and Pure    * //\n    // **************************** //  \n    \n    /** @dev Return the amount of jurors which are or will be drawn in the dispute.\n     *  The number of jurors is doubled and 1 is added at each appeal. We have proven the formula by recurrence.\n     *  This avoid having a variable number of jurors which would be updated in order to save gas.\n     *  @param _disputeID The ID of the dispute we compute the amount of jurors.\n     *  @return nbJurors The number of jurors which are drawn.\n     */\n    function amountJurors(uint _disputeID) public constant returns(uint nbJurors) {\n        Dispute storage dispute = disputes[_disputeID];\n        return (dispute.initialNumberJurors+1) * 2**dispute.appeals - 1;\n    }\n    \n    /** @dev Must be used to prove that a juror has been draw at least _draws.length times.\n     *  We have to require the user to specify the draws that lead the juror to be drawn.\n     *  Because doing otherwise (looping through all draws) could consume too much gas.\n     *  @param _jurorAddress Address of the juror we want to prove was drawn.\n     *  @param _disputeID The ID of the dispute the juror was drawn.\n     *  @param _draws The list of draws the juror was drawn. It draw numbering starts at 1 and the numbers should be increasing.\n     *  Note that in most cases this list will just contain 1 number.\n     *  @param valid true if the draws are valid.\n     */\n    function validDraws(address _jurorAddress, uint _disputeID, uint[] _draws) public constant returns(bool valid) {\n        uint draw = 0;\n        Juror storage juror = jurors[_jurorAddress];\n        Dispute storage dispute = disputes[_disputeID];\n        uint nbJurors = amountJurors(_disputeID);\n        \n        if (juror.lastSession!=session) return false; // Make sure that the tokens were activated for this session.\n        if (dispute.session+dispute.appeals != session) return false; // Make sure this currently a dispute.\n        if (period<=Period.Draw) return false; // Make sure that it's already drawn.\n        for (uint i;i<_draws.length;++i) {\n            if (_draws[i]<=draw) return false; // Make sure that draws are always increasing to avoid someone inputing the same multiple times.\n            draw = _draws[i];\n            if (draw>nbJurors) return false;\n            uint position = uint(keccak256(randomNumber,_disputeID,draw)) % segmentSize; // Random position on the segment for draw.\n            require(position>=juror.segmentStart);\n            require(position<juror.segmentEnd);\n        }\n        \n        return true;\n    }\n    \n    // **************************** //\n    // *   Arbitrator functions   * //\n    // *   Modifying the state    * //\n    // **************************** //\n    \n    /** @dev Create a dispute. Must be called by the arbitrable contract.\n     *  Must be paid at least arbitrationCost().\n     *  @param _choices Amount of choices the arbitrator can make in this dispute.\n     *  @param _extraData Null for the default number. Otherwise, first 16 bytes will be used to return the number of jurors.\n     *  @return disputeID ID of the dispute created.\n     */\n    function createDispute(uint _choices, bytes _extraData) public payable returns(uint disputeID) {\n        uint16 nbJurors = extraDataToNbJurors(_extraData);\n        require(msg.value >= arbitrationCost(_extraData));\n        \n        disputeID = disputes.length++;\n        Dispute storage dispute = disputes[disputeID];\n        dispute.arbitrated = Arbitrable(msg.sender);\n        if (period < Period.Draw) // If drawing did not start schedule it for the current session.\n            dispute.session = session;\n        else // Otherwise schedule it for the next one.\n            dispute.session = session+1;\n        dispute.choices = _choices;\n        dispute.initialNumberJurors = nbJurors;\n        dispute.arbitrationFeePerJuror = arbitrationFeePerJuror; // We story it as it will be able to be changed through the governance mechanism.\n        dispute.votes.length++;\n        dispute.voteCounter.length++;\n        \n        DisputeCreation(disputeID, Arbitrable(msg.sender));\n        return disputeID;\n    }\n    \n    /** @dev Appeal a ruling. Note that it has to be called before the arbitrator contract calls rule.\n     *  @param _disputeID ID of the dispute to be appealed.\n     *  @param _extraData Standard but not used by this contract.\n     */\n    function appeal(uint _disputeID, bytes _extraData) public payable onlyDuring(Period.Appeal) {\n        super.appeal(_disputeID,_extraData);\n        Dispute storage dispute = disputes[_disputeID];\n        require(msg.value >= appealCost(_disputeID,_extraData));\n        require(dispute.session+dispute.appeals == session); // Dispute of the current session.\n        \n        dispute.appeals++;\n        dispute.votes.length++;\n        dispute.voteCounter.length++;\n        \n    }\n    \n    /** @dev Execute the ruling of a dispute which is in the state executable. UNTRUSTED.\n     *  @param disputeID ID of the dispute to execute the ruling.\n     */\n    function executeRuling(uint disputeID) public {\n        Dispute storage dispute = disputes[disputeID];\n        require(dispute.state==DisputeState.Executable);\n        \n        dispute.state=DisputeState.Executed;\n        dispute.arbitrated.rule(disputeID,dispute.voteCounter[dispute.appeals].winningChoice);\n    }\n    \n    // **************************** //\n    // *   Arbitrator functions   * //\n    // *    Constant and pure     * //\n    // **************************** //\n    \n    /** @dev Compute the cost of arbitration. It is recommended not to increase it often, as it can be highly time and gas consuming for the arbitrated contracts to cope with fee augmentation.\n     *  @param _extraData Null for the default number. Other first 16 bytes will be used to return the number of jurors.\n     *  @return fee Amount to be paid.\n     */\n    function arbitrationCost(bytes _extraData) public constant returns(uint fee) {\n        return extraDataToNbJurors(_extraData) * arbitrationFeePerJuror;\n    }\n    \n    /** @dev Compute the cost of appeal. It is recommended not to increase it often, as it can be highly time and gas consuming for the arbitrated contracts to cope with fee augmentation.\n     *  @param _disputeID ID of the dispute to be appealed.\n     *  @param _extraData Is not used there.\n     *  @return fee Amount to be paid.\n     */\n    function appealCost(uint _disputeID, bytes _extraData) public constant returns(uint fee) {\n        Dispute storage dispute = disputes[_disputeID];\n        return (2*amountJurors(_disputeID) + 1) * dispute.arbitrationFeePerJuror;\n    }\n    \n    /** @dev Compute the amount of jurors to be drawn.\n     *  @param _extraData Null for the default number. Other first 16 bytes will be used to return the number of jurors.\n     *  Note that it does not check that the number of jurors is odd, but users are advised to choose a odd number of jurors.\n     */\n    function extraDataToNbJurors(bytes _extraData) internal constant returns(uint16 nbJurors) {\n        if (_extraData.length<2)\n            return defaultNumberJuror;\n        else\n            return (uint16(_extraData[0])<<8) + uint16(_extraData[1]);\n    }\n    \n    \n    // **************************** //\n    // *     Constant getters     * //\n    // **************************** //\n    \n    /** @dev Getter for account in Vote.\n     *  @param _disputeID ID of the dispute.\n     *  @param _appeals Which appeal (or 0 for the initial session).\n     *  @param _voteID The ID of the vote for this appeal (or initial session).\n     *  @return account The address of the voter.\n     */\n    function getVoteAccount(uint _disputeID, uint _appeals, uint _voteID) public constant returns(address account) {\n        return disputes[_disputeID].votes[_appeals][_voteID].account;\n    }\n    \n    /** @dev Getter for ruling in Vote.\n     *  @param _disputeID ID of the dispute.\n     *  @param _appeals Which appeal (or 0 for the initial session).\n     *  @param _voteID The ID of the vote for this appeal (or initial session).\n     *  @return ruling The ruling given by the voter.\n     */\n    function getVoteRuling(uint _disputeID, uint _appeals, uint _voteID) public constant returns(uint ruling) {\n        return disputes[_disputeID].votes[_appeals][_voteID].ruling;\n    }\n    \n    /** @dev Getter for winningChoice in VoteCounter.\n     *  @param _disputeID ID of the dispute.\n     *  @param _appeals Which appeal (or 0 for the initial session).\n     *  @return winningChoice The currently winning choice (or 0 if it's tied). Note that 0 can also be return if the juror mainly refuse to arbitrate.\n     */\n    function getWinningChoice(uint _disputeID, uint _appeals) public constant returns(uint winningChoice) {\n        return disputes[_disputeID].voteCounter[_appeals].winningChoice;\n    }\n    \n    /** @dev Getter for winningCount in VoteCounter.\n     *  @param _disputeID ID of the dispute.\n     *  @param _appeals Which appeal (or 0 for the initial session).\n     *  @return winningCount The amount of votes the winning choice (or those who are tied) has.\n     */\n    function getWinningCount(uint _disputeID, uint _appeals) public constant returns(uint winningCount) {\n        return disputes[_disputeID].voteCounter[_appeals].winningCount;\n    }\n    \n    /** @dev Getter for voteCount in VoteCounter.\n     *  @param _disputeID ID of the dispute.\n     *  @param _appeals Which appeal (or 0 for the initial session).\n     *  @param _choice The choice.\n     *  @return voteCount The amount of votes the winning choice (or those who are tied) has.\n     */\n    function getVoteCount(uint _disputeID, uint _appeals, uint _choice) public constant returns(uint voteCount) {\n        return disputes[_disputeID].voteCounter[_appeals].voteCount[_choice];\n    }\n    \n    /** @dev Getter for lastSessionVote in Dispute.\n     *  @param _disputeID ID of the dispute.\n     *  @param _juror The juror we want to get the last session he voted.\n     *  @return lastSessionVote The last session the juror voted.\n     */\n    function getLastSessionVote(uint _disputeID, address _juror) public constant returns(uint lastSessionVote) {\n        return disputes[_disputeID].lastSessionVote[_juror];\n    }\n    \n    /** @dev Is the juror drawn in the draw of the dispute.\n     *  @param _disputeID ID of the dispute.\n     *  @param _juror The juror.\n     *  @param _draw The draw. Note that it starts at 1.\n     *  @return drawn True if the juror is drawn, false otherwise.\n     */\n    function isDrawn(uint _disputeID, address _juror, uint _draw) public constant returns(bool drawn) {\n        Dispute storage dispute = disputes[_disputeID];\n        Juror storage juror = jurors[_juror];\n        if (juror.lastSession!=session \n        || (dispute.session+dispute.appeals != session)\n        || period<=Period.Draw\n        || _draw > amountJurors(_disputeID)\n        || _draw == 0\n        || segmentSize == 0\n        ) {\n            return false;\n        } else {\n            uint position = uint(keccak256(randomNumber,_disputeID,_draw)) % segmentSize;\n            return (position>=juror.segmentStart) && (position<juror.segmentEnd);\n        }\n        \n    }\n    \n    /** @dev Return the current ruling of a dispute. This is useful for parties to know if they should appeal.\n     *  @param _disputeID ID of the dispute.\n     *  @return ruling The current ruling which will be given if there is no appeal. If it is not available, return 0.\n     */\n    function currentRuling(uint _disputeID) constant returns(uint ruling) {\n        Dispute storage dispute = disputes[_disputeID];\n        return dispute.voteCounter[dispute.appeals].winningChoice;\n    }\n    \n    /** @dev Return the status of a dispute.\n     *  @param _disputeID ID of the dispute to rule.\n     *  @return status The status of the dispute.\n     */\n    function disputeStatus(uint _disputeID) public constant returns(DisputeStatus status) {\n        Dispute storage dispute = disputes[_disputeID];\n        if (dispute.session+dispute.appeals<session) // Dispute of past session.\n            return DisputeStatus.Solved;\n        else if(dispute.session+dispute.appeals==session) { // Dispute of current session.\n            if (dispute.state==DisputeState.Open) {\n                if (period < Period.Appeal)\n                    return DisputeStatus.Waiting;\n                else if (period == Period.Appeal)\n                    return DisputeStatus.Appealable;\n                else return DisputeStatus.Solved;\n            } else return DisputeStatus.Solved;\n        } else return DisputeStatus.Waiting; // Dispute for future session.\n    }\n    \n}\n",
  "sourcePath": "/Users/samvitello/work/kleros/kleros/contracts/KlerosPOC.sol",
  "compiler": {
    "name": "solc",
    "version": "0.4.18+commit.9cf6e910.Emscripten.clang"
  },
  "schemaVersion": "1.0.1",
  "updatedAt": "2018-01-17T03:43:38.536Z"
}